S012000061726475696E6F5F65632E73726563F9
S11300000C9463000C948B000C948B000C948B0068
S11300100C948B000C948B000C948B000C948B0030
S11300200C948B000C948B000C948B000C948B0020
S11300300C948B000C948B000C948B000C948B0010
S11300400C94DD0B0C948B000C94A7090C94D90927
S11300500C948B000C948B000C948B000C948B00F0
S11300600C948B000C948B0000000008000201002B
S1130070000304070000000000000000010204085F
S113008010204080010204081020010204081020FE
S1130090040404040404040402020202020203032A
S11300A003030303000000002300260029000000CE
S11300B00000250028002B00000000002400270079
S11300C02A00E703090A11241FBECFEFD8E0DEBFE0
S11300D0CDBF11E0A0E0B1E0EAE5FCE102C005908B
S11300E00D92AE34B107D9F722E0AEE4B1E001C01D
S11300F01D92A036B207E1F710E0C3E6D0E004C0D9
S11301002197FE010E94250EC136D107C9F70E942E
S1130110370A0C942B0E0C940000CF93DF93EC0160
S113012060E08E810E945C0D81E090E00E94940C5E
S113013061E08E810E945C0D81E090E00E94940C4D
S113014060E08E810E945C0D84E690E0DF91CF91A7
S11301500C94940CCF92DF92EF92FF920F931F9323
S1130160CF93DF937C016C0187E0C80ED11CC0E003
S1130170D0E0062F10E0B8010C2E02C075956795EB
S11301800A94E2F76170F60181916F010E945C0D9F
S11301902196C430D10579F7C701DF91CF911F9122
S11301A00F91FF90EF90DF90CF900C948D00CF9241
S11301B0DF92EF92FF920F931F93CF93DF937C0113
S11301C06C0187E0C80ED11CC0E0D0E0062F10E01F
S11301D0B8010C2E02C0759567950A94E2F7617018
S11301E0F60181916F010E945C0D2196C830D10502
S11301F079F7C701DF91CF911F910F91FF90EF9095
S1130200DF90CF900C948D001F93CF93DF93EC017C
S1130210162F642F8C810E945C0D8D818F3F19F005
S113022060E00E945C0D8F85612F84FF06C0CE01C3
S1130230DF91CF911F910C94D70070E084E0759505
S113024067958A95E1F7CE010E94AA00612FCE013D
S1130250DF91CF911F910C94AA0040E00C9404010B
S113026061E00E942D0180ED97E00C94940CFC0158
S1130270443008F043E08389481710F04FEF480FEB
S1130280DF01A40FB11D54969C91690F6068CF01E2
S11302900C942D01FC016089262F2460208B6C6056
S11302A00C942D01EF92FF920F931F93CF93DF9342
S11302B0EC01423018F08F8588608F874B8B1C8A45
S11302C080E48D8B6E8B70E0605C7F4F6F8B22239C
S11302D029F0413019F48F8584608F8761E08C8127
S11302E00E94200D8D818F3F19F061E00E94200D46
S11302F061E08E810E94200D7E0187E0E80EF11CF2
S113030000E010E08F8584FD03C084E090E002C02B
S113031088E090E0081719074CF461E0F701819137
S11303207F010E94200D0F5F1F4FECCF80E593ECFF
S11303300E94940C60E08C810E945C0D60E08E81D0
S11303400E945C0D8D818F3F19F060E00E945C0D6E
S11303506F8564FD1DC063E0CE010E94AA0084E99C
S113036091E10E94940C63E0CE010E94AA0084E90A
S113037091E10E94940C63E0CE010E94AA0086E9F8
S113038090E00E94940C62E0CE010E94AA0016C084
S11303906062CE010E942D0184E991E10E94940CD7
S11303A06F856062CE010E942D0186E990E00E9473
S11303B0940C6F856062CE010E942D016F8560628E
S11303C0CE010E942D0184E0888BCE010E944A0157
S11303D0CE010E94300182E0898B66E0CE01DF917C
S11303E0CF911F910F91FF90EF900C942D01CF921C
S11303F0EF920F93FC01138212828DE091E09183BE
S1130400808364838FEF8583468327830087E18617
S1130410C2861386148615861686178620E041E068
S113042060E1CF010F91EF90CF900C945201CF92E5
S1130430DF92EF92FF920F931F93CF93DF9300D03D
S1130440CDB7DEB78C01677088E0689FB0011124D6
S11304506064C80149835A830E942D014981C42ED6
S11304605A81D52E7601A8E0EA0EF11CF6016191BD
S11304706F01D801ED91FC910190F081E02DC8014C
S11304800995CE14DF0491F70F900F90DF91CF916F
S11304901F910F91FF90EF90DF90CF90089541E06E
S11304A00E94040181E090E0089541E06FE771E06B
S11304B084E991E00E94E20581110AC084E991E097
S11304C00E94B1056AEF70E080E090E00C94580C53
S11304D00895CF9384E991E00E9489046FE771E065
S11304E084E991E00E94840541E064E484E991E0B8
S11304F00E94260562E370E080E090E00E94580CC0
S113050084E991E00E9489046FE771E084E991E055
S11305100E94840540E06EEB84E991E00E94260588
S113052010929301C0919301C93078F484E991E069
S11305300E946805EC2FF0E0E957FE4F808380911C
S113054093018F5F80939301EDCF6091880170E0F8
S1130550762F662780918701682B6E7F072E000C0B
S1130560880B990B0E945A0720E030E040E85DE3D5
S11305700E94EB0760937B0170937C0180937D0163
S113058090937E01CF910895CF93DF93C09156014C
S1130590D0E0CC0FDD1FC95ADE4F80916B019091E2
S11305A06C0128813981821B930B90936C01809399
S11305B06B0180E00E94DA0C99838883C091560114
S11305C0EC2FF0E0EE0FFF1FE95AFE4F208131813E
S11305D080916B0190916C01820F931F90936C0139
S11305E080936B016AE070E00E94EF0D70936E01DE
S11305F060936D0180E090E00E94580728E638EE91
S11306004FE95BE30E94EB076093770170937801F5
S11306108093790190937A01CF5FCA3018F4C09324
S1130620560102C010925601DF91CF910895CF92E6
S1130630DF92EF92FF920E9469020E94C4026091CD
S11306407701709178018091790190917A0160939A
S1130650730170937401809375019093760120E087
S113066030E048EC52E40E94EB076B017C0120E08F
S113067030E048EC51E460917B0170917C01809101
S11306807D0190917E010E94790626E636E646E6D3
S11306905FE30E94EB0720E030E048EC52E40E9464
S11306A07A069B01AC01C701B6010E94E60660937D
S11306B06F017093700180937101909372010E9495
S11306C0270C60934E0170934F01809350019093D7
S11306D05101C0905201D0905301E0905401F09028
S11306E05501DC01CB018C199D09AE09BF09843683
S11306F09105A105B10508F465C040E060E082EA17
S113070091E00E94370140917B0150917C016091FE
S11307107D0170917E0121E030E082EA91E00E9447
S1130720DB0B40E067E082EA91E00E9437014091F0
S1130730730150917401609175017091760122E00A
S113074030E082EA91E00E94DB0B41E067E082EA5C
S113075091E00E943701C0906F01D0907001E09049
S11307607101F090720120E030E0A901C701B601E7
S11307700E94E60722E030E087FD03C0B701A6012E
S113078003C040E050E0BA0182EA91E00E94DB0B32
S11307908DE00E948C0D61E0892B09F060E08DE012
S11307A00E945C0D80914E0190914F01A0915001E7
S11307B0B09151018093520190935301A09354013D
S11307C0B0935501FF90EF90DF90CF900895CF92B2
S11307D0EF920F9382E0C82E93E0E92E04E025E027
S11307E04BE06CE082EA91E00E94F7016AE084E960
S11307F091E00F91EF90CF900C94BD0561E08DE0F6
S11308000E94200D40E051E060E082EA91E00E9405
S1130810170220E042E060E182EA91E00E94520186
S113082040E060E082EA91E00E94370161E171E01A
S113083082EA91E00E94860A68EE73E080E090E02C
S11308400E94580C82EA91E00E94300140E064E08A
S113085082EA91E00E94370160E082EA91E00E941E
S11308604F0240E065E082EA91E00E9437016FE1C7
S113087071E082EA91E00E94860A40E06BE082EA3D
S113088091E00E94370162E271E082EA91E00E9405
S1130890860A41E060E082EA91E00E94370168E262
S11308A071E082EA91E00E94860A41E064E082EA13
S11308B091E00E94370160E082EA91E00E944F02D9
S11308C041E065E082EA91E00E9437016DE271E067
S11308D082EA91E00E94860A41E06BE082EA91E0BC
S11308E00E94370162E271E082EA91E00E94860A86
S11308F00E94550226E040E855E260E070E08AEB91
S113090091E00E94420961E171E08AEB91E00C946C
S1130910930AFF920F931F93CF93DF93FC010081FF
S1130920C181D281F8948981F02EF0948F2189833A
S113093078941DE7115029F182E090E00E94940C14
S113094088818023B9F3F8948A818F218A838981ED
S1130950802B8983789480EE91E00E94940CF89423
S11309608981F822F98286E490E00E94940C8881BF
S1130970082311E009F010E078948AE991E00E94DC
S1130980940C812FDF91CF911F910F91FF900895C7
S11309901F93CF93DF93FC011081C181D281812FFA
S11309A0809560FF12C0F8949A8189238A83898193
S11309B0812B89838AE090E00E94940C8A81182B11
S11309C01A83789487E390E011C0F8949A8189237C
S11309D08A838981812B898381E490E00E94940C2D
S11309E08A81182B1A83789485E090E0DF91CF9167
S11309F01F910C94940C0F931F93CF93DF93FC01DE
S1130A001081C181D281F8948981812B89838A8163
S1130A10012F009580238A8383E090E00E94940C48
S1130A208981082309838AE090E00E94940CC8819C
S1130A30789485E390E00E94940C1C2381E009F4EF
S1130A4080E0DF91CF911F910F910895CF92DF92B3
S1130A50EF92FF920F931F93CF93DF931F92CDB723
S1130A60DEB76C01E62E08E010E0FF24F39461E0A9
S1130A708F2D8E2109F460E0C60149830E94C804C9
S1130A80FF0C0150110949810115110581F741112C
S1130A9015C0F894D6011196ED91FC9112979181AD
S1130AA08C918095892381831196ED91FC91129705
S1130AB092818C9180958923828378940F90DF9121
S1130AC0CF911F910F91FF90EF90DF90CF900895F9
S1130AD0EF92FF920F931F93CF93DF937C0108E073
S1130AE010E0C0E0D1E0C7010E94FB048111CD2BCE
S1130AF0DD0F01501109B9F78C2FDF91CF911F91B0
S1130B000F91FF90EF900895CF92DF92EF92FF92B2
S1130B100F931F93CF93DF931F92CDB7DEB78C0152
S1130B20F62E40E065E579830E942605CF2C798175
S1130B30D72E760188E0E80EF11CF60161916F0171
S1130B4040E0C8010E942605CE14DF04B1F70F90DF
S1130B50DF91CF911F910F91FF90EF90DF90CF9095
S1130B600895FC01138615861486DC011B963396C2
S1130B701E92AE17BF07E1F708950F931F93CF930B
S1130B808C01C62F60E08C2F0E94200D6C2F70E02A
S1130B90FB01E458FF4FE491D801EC93FB01E057CB
S1130BA0FF4FE491F0E0EE0FFF1FEC55FF4F8591EE
S1130BB09491F80192838183C801CF911F910F9181
S1130BC00C94B105AF92BF92CF92DF92EF92FF9255
S1130BD00F931F93CF93DF931F92CDB7DEB75C01C2
S1130BE0D62EE72EFC018585811107C0C5014983F6
S1130BF00E9489044981811106C0F5011386158676
S1130C00148680E06AC0442319F040E060EF02C01B
S1130C1040E06CEEC5010E94260501E0F12CC12CD8
S1130C2011E0C5010E94FB04682FC50169830E947D
S1130C30FB046981613019F48130B9F433C04F2D5C
S1130C4050E068131BC0F5018385181730F4E40FD6
S1130C50F51F8381802349F402C0181731F060E046
S1130C60193058F4F501148708C0F501EF0DF11D92
S1130C708381802B838361E009C0C12EF501E40FD9
S1130C80F51F9381802F809589238383C5010E945A
S1130C90C8041F5F000F11F4F39401E0F7E0FF159F
S1130CA008F0BFCF113408F4A8CFF501C386C110F2
S1130CB002C081E08587F5018381882309F49DCFF3
S1130CC0D5011396ED2DFE2D9501255F3F4F8D9196
S1130CD08193A217B307D9F781E00F90DF91CF91E9
S1130CE01F910F91FF90EF90DF90CF90BF90AF9046
S1130CF008955058BB27AA270E9491060C94AC076C
S1130D000E949E0738F00E94A50720F039F49F3F07
S1130D1019F426F40C949B070EF4E095E7FB0C946D
S1130D209507E92F0E94BD0758F3BA1762077307A6
S1130D308407950720F079F4A6F50C94DF070EF4E8
S1130D40E0950B2EBA2FA02D0B01B90190010C01D7
S1130D50CA01A0011124FF27591B99F0593F50F4EF
S1130D60503E68F11A16F040A22F232F342F442747
S1130D70585FF3CF469537952795A795F04053953F
S1130D80C9F77EF41F16BA0B620B730B840BBAF00F
S1130D909150A1F0FF0FBB1F661F771F881FC2F77A
S1130DA00EC0BA0F621F731F841F48F4879577958E
S1130DB06795B795F7959E3F08F0B0CF9395880F48
S1130DC008F09927EE0F9795879508950E94FA06E3
S1130DD00C94AC070E94A50758F00E949E0740F0AF
S1130DE029F45F3F29F00C94950751110C94E00706
S1130DF00C949B070E94BD0768F39923B1F3552314
S1130E0091F3951B550BBB27AA2762177307840719
S1130E1038F09F5F5F4F220F331F441FAA1FA9F3AF
S1130E2035D00E2E3AF0E0E832D091505040E6959D
S1130E30001CCAF72BD0FE2F29D0660F771F881FFE
S1130E40BB1F261737074807AB07B0E809F0BB0BF1
S1130E50802DBF01FF2793585F4F3AF09E3F510505
S1130E6078F00C9495070C94E0075F3FE4F3983E08
S1130E70D4F3869577956795B795F7959F5FC9F7EE
S1130E80880F911D9695879597F90895E1E0660F6F
S1130E90771F881FBB1F621773078407BA0720F0E8
S1130EA0621B730B840BBA0BEE1F88F7E095089551
S1130EB0E89409C097FB3EF49095809570956195F0
S1130EC07F4F8F4F9F4F9923A9F0F92F96E9BB27A6
S1130ED09395F695879577956795B795F111F8CF22
S1130EE0FAF4BB0F11F460FF1BC06F5F7F4F8F4F8D
S1130EF09F4F16C0882311F096E911C0772321F083
S1130F009EE8872F762F05C0662371F096E8862F1A
S1130F1070E060E02AF09A95660F771F881FDAF771
S1130F20880F9695879597F9089597F99F6780E8B4
S1130F3070E060E008959FEF80EC089500240A9427
S1130F401616170618060906089500240A941216A0
S1130F501306140605060895092E0394000C11F4D3
S1130F60882352F0BB0F40F4BF2B11F460FF04C080
S1130F706F5F7F4F8F4F9F4F089557FD9058440FD9
S1130F80551F59F05F3F71F04795880F97FB991FE4
S1130F9061F09F3F79F087950895121613061406A1
S1130FA0551FF2CF4695F1DF08C01616170618062E
S1130FB0991FF1CF86957105610508940895E89409
S1130FC0BB2766277727CB0197F908950E94580815
S1130FD008F48FEF08950E94FE070C94AC070E945A
S1130FE09E0738F00E94A50720F0952311F00C9479
S1130FF095070C949B0711240C94E0070E94BD07ED
S113100070F3959FC1F3950F50E0551F629FF00157
S1131010729FBB27F00DB11D639FAA27F00DB11D70
S1131020AA1F649F6627B00DA11D661F829F2227F9
S1131030B00DA11D621F739FB00DA11D621F839F80
S1131040A00D611D221F749F3327A00D611D231F56
S1131050849F600D211D822F762F6A2F11249F57A4
S113106050409AF0F1F088234AF0EE0FFF1FBB1FA7
S1131070661F771F881F91505040A9F79E3F510566
S113108080F00C9495070C94E0075F3FE4F3983EDE
S1131090D4F3869577956795B795F795E7959F5F10
S11310A0C1F7FE2B880F911D9695879597F90895A2
S11310B0990F0008550FAA0BE0E8FEEF1616170665
S11310C0E807F907C0F012161306E407F50798F0CD
S11310D0621B730B840B950B39F40A2661F0232BE6
S11310E0242B252B21F408950A2609F4A140A69562
S11310F08FEF811D811D0895FC01918D228D892F13
S113110090E0805C9F4F821B91098F73992708950B
S1131110FC01918D828D981731F0828DE80FF11DBD
S1131120858D90E008958FEF9FEF0895FC01918DD8
S1131130828D981761F0828DDF01A80FB11D5D9635
S11311408C91928D9F5F9F73928F90E008958FEFA3
S11311509FEF08958FEF99E0892B49F080E090E0AC
S1131160892B29F00E94FF0981110C940000089535
S1131170FC01848DDF01A80FB11DA35ABF4F2C9130
S1131180848D90E001968F739927848FA689B789FF
S11311902C93A089B1898C9180648C93938D848DD8
S11311A0981306C00288F389E02D80818F7D8083A7
S11311B00895CF93DF93EC01888D8823C9F0EA89E1
S11311C0FB89808185FD05C0A889B9898C9186FD3C
S11311D00FC00FB607FCF5CF808185FFF2CFA88939
S11311E0B9898C9185FFEDCFCE010E94B808E7CF75
S11311F0DF91CF910895EF92FF920F931F93CF93B6
S1131200DF93EC0181E0888F9B8D8C8D981305C052
S1131210E889F989808185FD24C0F62E0B8D10E0C4
S11312200F5F1F4F0F731127E02E8C8DE8120CC037
S11312300FB607FCFACFE889F989808185FFF5CFDD
S1131240CE010E94B808F1CF8B8DFE01E80FF11D8D
S1131250E35AFF4FF0820B8FEA89FB898081806219
S113126007C0EE89FF896083E889F98980818064F9
S1131270808381E090E0DF91CF911F910F91FF90E7
S1131280EF900895CF92DF92EF92FF921F93CF9346
S1131290DF93EC016A017B01122FE889F98982E06E
S11312A080834115514E61057105B1F060E079E02C
S11312B08DE390E0A70196010E94030EDA01C901B3
S11312C00197A109B109B695A79597958795AC01A2
S11312D0411580E15807A8F0E889F989108260E88F
S11312E074E88EE190E0A70196010E94030EBA0112
S11312F0A90141505109610971097695679557957E
S11313004795EC85FD855083EE85FF854083188ED7
S1131310EC89FD891083EA89FB898081806180835F
S1131320EA89FB89808188608083EA89FB898081DE
S113133080688083EA89FB8980818F7D8083DF9147
S1131340CF911F91FF90EF90DF90CF9008951F925F
S11313500F920FB60F9211242F938F939F93EF93B5
S1131360FF93E091CA01F091CB018081E091D0011B
S1131370F091D10182FD12C090818091D3018F5FE1
S11313808F732091D401821751F0E091D301F0E0E2
S1131390E654FE4F958F8093D30101C08081FF9165
S11313A0EF919F918F912F910F900FBE0F901F90EF
S11313B018951F920F920FB60F9211242F933F93FB
S11313C04F935F936F937F938F939F93AF93BF9349
S11313D0EF93FF938AEB91E00E94B808FF91EF919D
S11313E0BF91AF919F918F917F916F915F914F9139
S11313F03F912F910F900FBE0F901F9018958AEB7D
S113140091E00E947C0821E0892B09F420E0822FDE
S11314100895EAEBF1E01382128288EE93E0A0E0F3
S1131420B0E084839583A683B78383E391E09183BB
S1131430808385EC90E09587848784EC90E097879F
S1131440868780EC90E0918B808B81EC90E0938B8D
S1131450828B82EC90E0958B848B86EC90E0978B6A
S1131460868B118E128E138E148E089508950E9409
S11314709F0C0E94360A0E94FE03CAEAD8E00E942A
S113148017032097E1F30E94AA08F9CFCF92DF92C5
S1131490EF92FF920F931F93CF93DF936C017A0126
S11314A08B01C0E0D0E0CE15DF0589F0D8016D9145
S11314B08D01D601ED91FC910190F081E02DC601E2
S11314C00995892B11F47E0102C02196ECCFC70146
S11314D0DF91CF911F910F91FF90EF90DF90CF900C
S11314E008956115710579F0FB0101900020E9F779
S11314F03197AF01461B570BDC01ED91FC91028043
S1131500F381E02D099480E090E008950C94710A31
S1131510DC01ED91FC910190F081E02D09946FE3E1
S113152071E00C94710A0F931F93CF93DF93EC0136
S11315300E94710A8C01CE010E948F0A800F911FB4
S1131540DF91CF911F910F9108958F929F92AF9247
S1131550BF92CF92DF92EF92FF920F931F93CF939C
S1131560DF93CDB7DEB7A1970FB6F894DEBF0FBEF9
S1131570CDBF7C01D42EC52EDB0119A2223008F484
S11315802AE08E010F5D1F4F822E912CA12CB12CCD
S11315906D2D7C2DCD01A50194010E94030ED22E48
S11315A0C32EDA01015011096A30710581059105D4
S11315B010F4605D01C0695CF8016083232B242B67
S11315C0252B31F7B801C7010E94710AA1960FB605
S11315D0F894DEBF0FBECDBFDF91CF911F910F9165
S11315E0FF90EF90DF90CF90BF90AF909F908F903F
S11315F008954F925F926F927F928F929F92AF92D3
S1131600BF92CF92DF92EF92FF92CF93DF93EC01E0
S11316106A017B01B22E9A01AB01C701B6010E9497
S1131620EA0D882319F062E471E027C0260137012E
S1131630E89477F82FEF3FEF4FE75FE7C301B2017C
S11316400E94EA0D81110DC02FEF3FEF4FE75FE7D6
S1131650C301B2010E94B60D18161CF466E471E0D1
S11316600CC02FEF3FEF4FE75FE4C701B6010E94C4
S1131670E60718169CF46AE471E0CE01DF91CF917D
S1131680FF90EF90DF90CF90BF90AF909F908F909E
S11316907F906F905F904F900C94710A2FEF3FEF03
S11316A04FE75FECC701B6010E94B60D87FDE3CF9B
S11316B020E030E0A901C701B6010E94B60D87FF02
S11316C00AC06DE2CE010E94880A4C01F7FAF09438
S11316D0F7F8F09402C0812C912CA12C60E070E00A
S11316E080E09FE3AB1441F020E030E040E251E4BD
S11316F00E94E606A394F6CF9B01AC01C701B60194
S11317000E947A062B013C010E94BB0D6B017C01F7
S11317100E9458079B01AC01C301B2010E947906E3
S11317202B013C012AE0B701A601CE010E94A50AC3
S11317307C01E80CF91CBB2031F06EE2CE010E9462
S1131740880AE80EF91EDB2CDD2029F120E030E0C8
S113175040E251E4C301B2010E94EB072B013C01BA
S11317600E94BB0D4B01A12CB12C2AE0B501A401B0
S1131770CE010E94A50AE80EF91EC501B4010E941B
S113178058079B01AC01C301B2010E9479062B01E9
S11317903C01DA94D9CFC701DF91CF91FF90EF904C
S11317A0DF90CF90BF90AF909F908F907F906F907D
S11317B05F904F9008950C94F90A1F920F920FB600
S11317C00F9211242F933F938F939F93AF93BF93C3
S11317D08091580290915902A0915A02B0915B02F3
S11317E03091570223E0230F2D3720F40196A11DD9
S11317F0B11D05C026E8230F0296A11DB11D20933B
S113180057028093580290935902A0935A02B093BE
S11318105B0280915C0290915D02A0915E02B091A6
S11318205F020196A11DB11D80935C0290935D023D
S1131830A0935E02B0935F02BF91AF919F918F918D
S11318403F912F910F900FBE0F901F9018952FB7B7
S1131850F894609158027091590280915A029091C3
S11318605B022FBF08953FB7F89480915C0290917A
S11318705D02A0915E02B0915F0226B5A89B05C0EF
S11318802F3F19F00196A11DB11D3FBFBA2FA92FFB
S1131890982F8827820F911DA11DB11DBC01CD0178
S11318A042E0660F771F881F991F4A95D1F7089564
S11318B08F929F92AF92BF92CF92DF92EF92FF925C
S11318C06B017C010E94330C4B015C01C114D104F7
S11318D0E104F10401F10E94B50D0E94330CDC0116
S11318E0CB0188199909AA09BB09883E9340A1052F
S11318F0B10560F321E0C21AD108E108F10888EECD
S1131900880E83E0981EA11CB11CC114D104E1040B
S1131910F10419F7DBCFFF90EF90DF90CF90BF90E9
S1131920AF909F908F9008958230910538F0880F82
S1131930991F880F991F05970197F1F708957894D7
S113194084B5826084BD84B5816084BD85B58260C0
S113195085BD85B5816085BDEEE6F0E0808181605E
S11319608083E1E8F0E0108280818260808380815E
S113197081608083E0E8F0E0808181608083E1EB36
S1131980F0E0808184608083E0EBF0E0808181601E
S11319908083EAE7F0E080818460808380818260D4
S11319A080838081816080838081806880831092BD
S11319B0C10008958E3008F08E5087702091080180
S11319C090E4299F90011124822B80937C008091C4
S11319D07A00806480937A0080917A0086FDFCCF3F
S11319E0809178002091790090E0922B08958330C3
S11319F081F028F4813099F08230A1F00895873085
S1131A00A9F08830B9F08430D1F4809180008F7DC2
S1131A1003C0809180008F7780938000089584B5FF
S1131A208F7702C084B58F7D84BD08958091B00006
S1131A308F7703C08091B0008F7D8093B0000895AC
S1131A40CF93DF9390E0FC01E458FF4F2491FC0115
S1131A50E057FF4F8491882361F190E0880F991F2C
S1131A60FC01E854FF4FC591D491FC01E255FF4FAE
S1131A70A591B491611109C09FB7F894888120950C
S1131A8082238883EC912E230BC0623061F49FB7CC
S1131A90F8943881822F809583238883EC912E2BB0
S1131AA02C939FBF06C08FB7F894E8812E2B288310
S1131AB08FBFDF91CF9108951F93CF93DF93282F8A
S1131AC030E0F901E859FF4F8491F901E458FF4FE0
S1131AD0D491F901E057FF4FC491CC23C9F0162FDC
S1131AE081110E94F70CEC2FF0E0EE0FFF1FE2557E
S1131AF0FF4FA591B4918FB7F894111105C09C9133
S1131B00ED2FE095E92302C0EC91ED2BEC938FBF10
S1131B10DF91CF911F910895CF93DF93282F30E069
S1131B20F901E859FF4F8491F901E458FF4FD4912A
S1131B30F901E057FF4FC491CC2391F081110E9429
S1131B40F70CEC2FF0E0EE0FFF1FEC55FF4FA591C3
S1131B50B491EC91ED2381E090E021F480E002C0A7
S1131B6080E090E0DF91CF91089508950E94580895
S1131B7008F481E008950E94C50788F09F5798F003
S1131B80B92F9927B751B0F0E1F0660F771F881F7E
S1131B90991F1AF0BA95C9F714C0B13091F00E9498
S1131BA0DF07B1E008950C94DF07672F782F8827AB
S1131BB0B85F39F0B93FCCF3869577956795B395BF
S1131BC0D9F73EF490958095709561957F4F8F4F2E
S1131BD09F4F08950E945808880B990B0895AA1BDB
S1131BE0BB1B51E107C0AA1FBB1FA617B70710F004
S1131BF0A61BB70B881F991F5A95A9F78095909536
S1131C00BC01CD010895A1E21A2EAA1BBB1BFD0144
S1131C100DC0AA1FBB1FEE1FFF1FA217B307E407C7
S1131C20F50720F0A21BB30BE40BF50B661F771F1F
S1131C30881F991F1A9469F76095709580959095FF
S1131C409B01AC01BD01CF010895EE0FFF1F05906C
S10D1C50F491E02D0994F894FFCFFD
S1131C5A060909060000000001000000004F0246C0
S1131C6A0A534F494C4C4553532076312E30004386
S1131C7A20006D532F636D00454332350043000045
S1131C8A000000FB08460A7C0896088808D9080D53
S1111C9A0A006E616E00696E66006F76660069
S9030000FC
